:100000000C9462000C948A000C948A000C948A0070
:100010000C948A000C948A000C948A000C948A0038
:100020000C948A000C948A000C948A000C948A0028
:100030000C948A000C948A000C948A000C948A0018
:100040000C949A060C948A000C942E080C948A0046
:100050000C948A000C948A000C948A000C948A00F8
:100060000C948A000C948A000000000024002700F1
:100070002A0000000000250028002B0000000000DE
:1000800023002600290004040404040404040202DA
:100090000202020203030303030301020408102007
:1000A0004080010204081020010204081020000012
:1000B0000007000201000003040600000000000029
:1000C0000000B30911241FBECFEFD8E0DEBFCDBFC3
:1000D00011E0A0E0B1E0ECE2F8E102C005900D9281
:1000E000AE36B107D9F712E0AEE6B1E001C01D921D
:1000F000A438B107E1F710E0C4ECD0E004C02297C7
:10010000FE010E94080CC23CD107C9F70E94ED090C
:100110000C94140C0C940000FC0188279927E89497
:1001200021912032E9F3293010F02E30C8F32B3220
:1001300041F02D3239F4689404C00E94B300820F5C
:10014000911D219120532A30C0F31EF49095819582
:100150009F4F0895FB01DC018D91019080190110E2
:10016000D9F3990B08957AE0979F902D879F802D62
:10017000910D11240895F999FECF72BD61BDF89AD1
:1001800080B50895F999FECF1FBA72BD61BD40BD1B
:100190000FB6F894FA9AF99A0FBE0895853099F13E
:1001A000863064F4823009F1833024F4813009F020
:1001B00054C014C0833009F050C01EC08830C1F153
:1001C000893034F4863031F1873009F046C029C0D7
:1001D0008930A9F18A3009F040C038C081E792E047
:1001E00040EB54E060E070E03EC081E792E040E622
:1001F00059E060E070E037C081E792E040EC52E106
:1002000060E070E030C081E792E040E458E360E0F5
:1002100070E029C081E792E040E05BE460E070E0DC
:1002200022C081E792E040E850E760E070E01BC048
:1002300081E792E040E056E960E070E014C081E7B9
:1002400092E040E051EE60E070E00DC081E792E0A6
:1002500040E052EC61E070E006C081E792E040E8E7
:1002600055E260E070E00E946B08089510926F0103
:100270001CC0992787FD9095FC01E256FE4F208116
:10028000FC01EE0FFF1F213029F4E65BFE4F808159
:1002900061E004C0E65BFE4F808160E00E9492074F
:1002A00080916F018F5F80936F0180916F01883023
:1002B00004F308951F93182F8091C00080648093E9
:1002C000C00083E161E00E94920761E070E080E09D
:1002D00090E00E94F006809197018A302CF481E72B
:1002E00092E060E071E004C081E792E063E071E0D9
:1002F0000E942B0A81E792E0609197014AE050E06A
:100300000E94160B113019F0123061F405C081E71C
:1003100092E00E942A0B06C081E792E065E071E05E
:100320000E942B0A1F9108951F9310926F0111E0F4
:1003300020C0FF27E7FDF095EE0FFF1FE65AFE4FA6
:1003400080810E94DF07E0916F01892B39F4FF273C
:10035000E7FDF095E756FE4F108306C0FF27E7FD47
:10036000F095E756FE4F108280916F018F5F80936A
:100370006F01E0916F01E430E4F21F9108958F92D4
:100380009F92AF92BF92CF92DF92EF92FF920F9324
:100390001F93CF93DF930E94E2065B016C011092E2
:1003A0006F0139C0CE2FDD27C7FDD0953BED832EE1
:1003B00031E0932E8C0E9D1EF4016081662331F195
:1003C000FE01EE0FFF1FEE0FFF1FE954FE4F80816D
:1003D0009181A281B38186017501E81AF90A0A0B9D
:1003E0001B0B70E080E090E024E630E040E050E05D
:1003F0000E94830BE616F7060807190738F0F40188
:100400001082C256DE4F18820E94360180916F0121
:100410008F5F80936F01E0916F01E8301CF2609173
:10042000E301662381F18091D7019091D801A091D9
:10043000D901B091DA0186017501E81AF90A0A0BAF
:100440001B0B70E080E090E028EE33E040E050E0ED
:100450000E94830BE616F70608071907A0F0EEE9DD
:10046000F1E080E002C011928F5F8830E4F3809366
:100470006F010E943601A092D701B092D801C092BC
:10048000D901D092DA01DF91CF911F910F91FF90A6
:10049000EF90DF90CF90BF90AF909F908F90089596
:1004A0000F931F93CF93DF9381E792E00E9464093B
:1004B0008823A1F181E792E00E947809809370017E
:1004C000803449F480917301813029F081E0809378
:1004D000710180937201809171018130F9F49091E2
:1004E0007001903291F0903481F080917201E82F88
:1004F000FF27E7FDF095EB58FE4F90838F5F8093C9
:1005000072018E3014F010927101809170018D3063
:1005100029F41092710181E080937301809173013D
:10052000813009F08CC380917601809384018091A1
:100530007701809385011092860184E891E00E9402
:100540008C008093960180917801992787FD909582
:100550000E940C0C8093870180917901992787FD77
:1005600090950E940C0C80938801109289018091D3
:100570007A0180938A01E0917201E150E093740165
:10058000CBE7D1E0ABE8B1E096E003C089918D9371
:100590009F5FE917DCF790936F01FF27E7FDF09568
:1005A000E657FE4F11828AE891E00E948C00EC0130
:1005B0009093AB018093AA0190919601809197014D
:1005C000981719F0992309F038C387E891E067E09C
:1005D00071E00E94AA00009721F5C930D10508F505
:1005E000209779F4AEE9B1E0EBEDF1E081E091E044
:1005F00003C09D9311928F5F8930DCF380936F016C
:100600000BC0C356DE4F81E08883E091AA01F091D0
:10061000AB01E652FE4F10820E94360181E00E943B
:100620005A0187E891E06AE071E00E94AA00009711
:10063000E1F4E091AA01F091AB01E930F105A8F4F1
:10064000309759F4EEE9F1E081E002C011928F5F3A
:100650008930E4F380936F0103C0E356FE4F1082AC
:100660000E94360181E00E945A0187E891E06DE026
:1006700071E00E94AA00009709F041C02091AA01F0
:100680003091AB01C90168EE73E00E94A20B062F06
:100690006093B201C90168EE73E00E94A20B9C0155
:1006A0009093B6018093B501215030402F3F310522
:1006B00030F5112707FD1095015010400E94E20609
:1006C000000F111F000F111F09541E4FF801608306
:1006D000718382839383E091B201FF27E7FDF09558
:1006E000DF01A652BE4F8091B5018C93E356FE4FB9
:1006F00081E080830E94360181E00E945A0187E8F0
:1007000091E060E171E00E94AA000097C9F4809135
:10071000AA019091AB018F3F910509F088F40E94E6
:10072000E2066093D7017093D8018093D90190932A
:10073000DA018091AA018093E30181E00E945A01CD
:1007400087E891E063E171E00E94AA000097B1F5AB
:100750008091AA019091AB018F3F910509F048F576
:10076000EEE9F1E0ABEDB1E040E050E030E061E017
:1007700070E001E01AC0CB01042E02C0880F991F5F
:100780000A94E2F7282F8093A8018091AA0182237E
:100790008093A701821719F400831C9201C0108274
:1007A0004F5F5F4F3F5F31961196383024F330939F
:1007B0006F010E94360181E00E945A0187E891E0B2
:1007C00066E171E00E94AA00009709F050C02091F4
:1007D000AA013091AB01C9010197089788F482E022
:1007E0000E945A01E091AA01F091AB01E356FE4F3D
:1007F00081E792E060814AE050E00E94670B37C0D9
:10080000232BA9F51092B4011092B301EEE9F1E0A7
:1008100040E050E060E0A1E0B0E018C080818130AD
:1008200089F49D01042E02C0220F331F0A94E2F7BF
:100830008091B3019091B401822B932B9093B401DA
:100840008093B3014F5F5F4F6F5F3196683034F331
:1008500060936F0182E00E945A016091B301709130
:10086000B40181E792E04AE050E00E944C0B87E837
:1008700091E069E171E00E94AA00009709F05EC072
:100880000E9494012091AA013091AB01C901019706
:10089000049788F482E00E945A01E091AA01F09145
:1008A000AB01E856FE4F81E792E060814AE050E0FC
:1008B0000E94670B43C0232B09F040C01092B40183
:1008C0001092B30180916201813011F483E001C084
:1008D00088E08093A901E9E9F1E040E050E060E0C0
:1008E000A1E0B0E018C08081813089F49D01042E20
:1008F00002C0220F331F0A94E2F78091B301909156
:10090000B401822B932B9093B4018093B3014F5F7A
:100910005F4F6F5F31968091A901861724F760932E
:100920006F0182E00E945A016091B3017091B4019D
:1009300081E792E04AE050E00E944C0B87E891E0AA
:100940006CE171E00E94AA00009709F062C08091FA
:100950006201813009F05DC08091AA019091AB01E4
:10096000049708F056C010926F0115C0112707FDBB
:100970001095000F111FF801EC5BFE4F80810E9463
:10098000540704551E4FF8019183808380916F01B5
:100990008F5F80936F0100916F0103303CF382E021
:1009A0000E945A01E091AA01F091AB01309729F51C
:1009B0006091AC017091AD0181E792E04AE050E0B6
:1009C0000E94030B81E792E065E071E00E942B0A30
:1009D0006091AE017091AF0181E792E04AE050E092
:1009E0000E94030B81E792E065E071E00E942B0A10
:1009F0006091B0017091B10106C0EE0FFF1FE65586
:100A0000FE4F6081718181E792E04AE050E00E94F0
:100A10004C0B87E891E06FE171E00E94AA0000971B
:100A200009F0D2C08091AA019091AB01892B09F005
:100A3000CBC01092B4011092B301EEE9F1E040E0B6
:100A400050E060E0A1E0B0E018C08081813089F41E
:100A50009D01042E02C0220F331F0A94E2F78091F9
:100A6000B3019091B401822B932B9093B4018093A6
:100A7000B3014F5F5F4F6F5F3196683034F360931F
:100A80006F0182E00E945A016091B3017091B4013C
:100A900081E792E04AE050E00E94030B81E792E098
:100AA00065E071E00E942B0A0E9494011092B4014B
:100AB0001092B30180916201813011F483E001C092
:100AC00088E08093A901E9E9F1E040E050E060E0CE
:100AD000A1E0B0E018C08081813089F49D01042E2E
:100AE00002C0220F331F0A94E2F78091B301909164
:100AF000B401822B932B9093B4018093B3014F5F89
:100B00005F4F6F5F31968091A901861724F760933C
:100B10006F016091B3017091B40181E792E04AE006
:100B200050E00E94030B81E792E065E071E00E94D3
:100B30002B0A80916201813009F046C010926F014A
:100B400015C0112707FD1095000F111FF801EC5B70
:100B5000FE4F80810E94540704551E4FF801918377
:100B6000808380916F018F5F80936F0100916F018F
:100B700003303CF36091AC017091AD0181E792E0EC
:100B80004AE050E00E94030B81E792E065E071E0EB
:100B90000E942B0A6091AE017091AF0181E792E053
:100BA0004AE050E00E94030B81E792E065E071E0CB
:100BB0000E942B0A6091B0017091B10181E792E02F
:100BC0004AE050E00E944C0B87E891E062E271E05D
:100BD0000E94AA00009791F44091AA015091AB01A4
:100BE0004436510558F4409397018EE691E060E059
:100BF00070E00E94C20081E00E945A0187E891E003
:100C000065E271E00E94AA000097B9F44091AA0140
:100C10005091AB01CA0101970A9778F4409398016B
:100C20008EE691E061E070E00E94C2008091980140
:100C30000E94CE0081E00E945A01109273018091BF
:100C4000C00086FFFCCF83E160E00E9492070E9413
:100C5000BF01DF91CF911F910F91089510926F0105
:100C600010C0FF27E7FDF095EE0FFF1FE65BFE4F7C
:100C7000808161E00E94720780916F018F5F809395
:100C80006F01E0916F01E83064F310926F0110C0C2
:100C9000FF27E7FDF095EE0FFF1FE65AFE4F80811C
:100CA00060E00E94720780916F018F5F80936F01F7
:100CB000E0916F01E43064F383E161E00E94720728
:100CC0008EE691E060E070E00E94BB0080939701A7
:100CD000843610F0109297018EE691E061E070E0AA
:100CE0000E94BB00809398010E94CE008091C000BA
:100CF00080648093C00083E161E00E94920761E01C
:100D000070E080E090E00E94F00681E792E068E207
:100D100071E00E94410B81E792E067E371E00E947D
:100D2000410B8091C00086FFFCCF83E160E00E9410
:100D3000920708951F920F920FB60F9211242F93CE
:100D40003F938F939F93AF93BF938091E8019091CE
:100D5000E901A091EA01B091EB013091EC0101961B
:100D6000A11DB11D232F2D5F2D3720F02D5701968A
:100D7000A11DB11D2093EC018093E8019093E9013E
:100D8000A093EA01B093EB018091E4019091E50119
:100D9000A091E601B091E7010196A11DB11D8093DC
:100DA000E4019093E501A093E601B093E701BF91C0
:100DB000AF919F918F913F912F910F900FBE0F9008
:100DC0001F9018958FB7F8942091E8013091E901B0
:100DD0004091EA015091EB018FBFB901CA0108951A
:100DE000EF92FF920F931F937B018C018FB7F894C2
:100DF0004091E8015091E9016091EA017091EB01A5
:100E00008FBF2FB7F8948091E8019091E901A091EC
:100E1000EA01B091EB012FBF841B950BA60BB70B1A
:100E2000E816F9060A071B0760F71F910F91FF905C
:100E3000EF900895789484B5826084BD84B5816014
:100E400084BD85B5826085BD85B5816085BDEEE6D2
:100E5000F0E0808181608083E1E8F0E08081826061
:100E60008083808181608083E0E8F0E08081816020
:100E70008083E1EBF0E0808184608083E0EBF0E050
:100E8000808181608083EAE7F0E0808184608083F4
:100E9000808182608083808181608083808180689E
:100EA00080831092C100089587709091630192959C
:100EB000990F990F907C982B90937C0080917A00E9
:100EC000806480937A0080917A0086FDFCCF209127
:100ED000780040917900942F80E030E0282B392B66
:100EE000C9010895282F30E0C90186569F4FFC01A3
:100EF00094912A573F4FF9018491882391F0E82F6C
:100F0000F0E0EE0FFF1FE859FF4FA591B491662363
:100F100029F48C91909589238C9308958C91892B39
:100F20008C930895482F50E0CA0182559F4FFC01D1
:100F30002491CA0186569F4FFC0194914A575F4FF6
:100F4000FA0134913323D1F1222331F1233021F4FA
:100F5000809180008F7705C0243031F4809180002B
:100F60008F7D8093800018C0213019F484B58F776D
:100F700004C0223021F484B58F7D84BD0DC026309D
:100F800021F48091B0008F7705C0273029F480913B
:100F9000B0008F7D8093B000E32FF0E0EE0FFF1FD5
:100FA000EE58FF4FA591B491662329F48C9190954A
:100FB00089238C9308958C91892B8C930895682FA5
:100FC00070E0CB0182559F4FFC012491CB018656E6
:100FD0009F4FFC0144916A577F4FFB0194919923E5
:100FE00019F420E030E038C0222331F1233021F41D
:100FF000809180008F7705C0243031F4809180008B
:101000008F7D8093800018C0213019F484B58F77CC
:1010100004C0223021F484B58F7D84BD0DC02630FC
:1010200021F48091B0008F7705C0273029F480919A
:10103000B0008F7D8093B000892F90E0880F991FBA
:1010400084589F4FFC01A591B4918C9120E030E031
:10105000842311F021E030E0C90108951F920F921E
:101060000FB60F9211242F933F934F935F936F937B
:101070007F938F939F93AF93BF93EF93FF93409191
:10108000C600E0916D02F0916E02CF01019660E81A
:1010900070E00E94A20B9C0180916F0290917002FF
:1010A0002817390739F0E351FE4F408330936E0221
:1010B00020936D02FF91EF91BF91AF919F918F911E
:1010C0007F916F915F914F913F912F910F900FBE44
:1010D0000F901F9018955F926F927F928F929F92C0
:1010E000AF92BF92CF92DF92EF92FF920F931F9336
:1010F000CF93DF93EC013A014B01413482E458076E
:101100008FE0680780E078070CF07FC060E874E843
:101110008EE190E0A40193010E94D70B2150304052
:1011200040405040CA01B90122E030E040E050E0C8
:101130000E94D70B59016A01A601950120953095AF
:101140004095509594E0220F331F441F551F9A95E8
:10115000D1F760E074E284EF90E00E94D70BCA01FF
:10116000B9012FEF30E040E050E00E94830BA40172
:1011700093010E94D70BC90181509F4F1816190681
:101180001CF4522E5A9403C055245394521A60E012
:1011900079E08DE390E0A40193010E94D70B2150E8
:1011A000304040405040CA01B90122E030E040E008
:1011B00050E00E94D70B209530954095509583E0E4
:1011C000220F331F441F551F8A95D1F760E074E248
:1011D00084EF90E00E94D70BCA01B9012FEF30E0F5
:1011E00040E050E00E94830BA40193010E94D70BC2
:1011F000C90181509F4F181619061CF4822F815087
:1012000002C081E0821B851500F5E885F98581E043
:1012100090E00A8802C0880F991F0A94E2F7808341
:1012200060E079E08DE390E0A40193010E94D70B88
:101230002150304040405040CA01B90122E030E026
:1012400040E050E00E94D70B04C0E885F985108289
:101250009501EC81FD813083EE81FF812083EA8559
:10126000FB85208141E050E0CA010E8402C0880F56
:10127000991F0A94E2F7282B2083EA85FB852081B9
:10128000CA010F8402C0880F991F0A94E2F7282B25
:101290002083EA85FB858081088802C0440F551FA2
:1012A0000A94E2F7842B8083DF91CF911F910F91F5
:1012B000FF90EF90DF90CF90BF90AF909F908F9076
:1012C0007F906F905F900895DC011296ED91FC91F4
:1012D0001397E058FF4F8191919180589F4F208143
:1012E0003181821B930B60E870E00E94A20B08958D
:1012F000CF93DF93DC011296ED91FC911397EF01F0
:10130000CE57DF4F48815981E058FF4F808191814E
:10131000E058F0408417950719F42FEF3FEF0CC009
:10132000E40FF51F2081CA01019660E870E00E9479
:10133000A20B9983888330E0C901DF91CF91089592
:10134000FC01A085B18521898C9190E0022E02C01C
:10135000959587950A94E2F780FFF6CF0484F5858A
:10136000E02D6083089588E691E090937202809367
:1013700071028DEE91E0909374028093730285EC7C
:1013800090E0909376028093750284EC90E09093C5
:1013900078028093770280EC90E090937A028093B9
:1013A000790281EC90E090937C0280937B0286EC42
:1013B00090E090937E0280937D0284E080937F0290
:1013C00083E08093800287E08093810285E08093B0
:1013D000820281E08093830208950E941A070E948E
:1013E0002E060E945002FDCF0F931F93CF93DF93E1
:1013F0008C01EB0109C02196D801ED91FC9101907F
:10140000F081E02DC801099568816623A1F7DF917D
:10141000CF911F910F910895EF92FF920F931F9319
:10142000CF93DF938C017B01EA010CC0D7016D9152
:101430007D01D801ED91FC910190F081E02DC80172
:1014400009952197209791F7DF91CF911F910F91E7
:10145000FF90EF900895DC01ED91FC910280F38103
:10146000E02D099508952F923F924F925F926F92CF
:101470007F928F929F92AF92BF92CF92DF92EF9224
:10148000FF920F931F93DF93CF93CDB7DEB7A09753
:101490000FB6F894DEBF0FBECDBF1C016A017B0101
:1014A000411551056105710549F440E350E060E0E4
:1014B00070E020E030E00E94CD0A56C088249924D4
:1014C0005401422E55246624772401E010E00C0FCD
:1014D0001D1F080D191DC701B601A30192010E942D
:1014E000B50BF80160830894811C911CA11CB11CF0
:1014F000C701B601A30192010E94B50BC901DA012F
:101500006C017D01C114D104E104F104F1F681E024
:10151000E82EF12CEC0EFD1EE80CF91C3E0108949F
:10152000611C711CD501C4010197A109B1096C01AD
:10153000C818D90816C0F601EE0DFF1D40814A30CB
:1015400010F4405D01C0495C552747FD5095652F5B
:10155000752FC10120E030E00E94CD0A0894E10817
:10156000F1086E147F0439F7A0960FB6F894DEBF29
:101570000FBECDBFCF91DF911F910F91FF90EF90E4
:10158000DF90CF90BF90AF909F908F907F906F90A3
:101590005F904F903F902F900895EF92FF920F939E
:1015A0001F93CF93DF93EC017A018B012115310555
:1015B00041F4E881F9810190F081E02D642F0995D3
:1015C0001BC02A303105B1F477FF10C04DE250E066
:1015D00060E070E020E030E00E94CD0A10950095B8
:1015E000F094E094E11CF11C011D111DCE01B80125
:1015F000A7012AE00E94330ADF91CF911F910F913A
:10160000FF90EF900895EF92FF920F931F937B014D
:101610009A010027F7FC0095102FB801A7010E943E
:10162000CD0A1F910F91FF90EF900895EF92FF92D6
:101630000F931F93E62E9A01FF24E7FCF0940F2DE1
:101640001F2DB801A7010E94CD0A1F910F91FF9095
:10165000EF9008950F931F938C014DE050E060E0F0
:1016600070E020E030E00E94CD0AC8014AE050E07E
:1016700060E070E020E030E00E94CD0A1F910F9101
:1016800008950F931F938C010E942B0AC8010E949A
:101690002A0B1F910F910895CF92DF92EF92FF9244
:1016A0000F931F938C016B019A01EE24D7FCE094F9
:1016B000FE2CB701A6010E94CD0AC8010E942A0B88
:1016C0001F910F91FF90EF90DF90CF900895CF92F0
:1016D000DF92EF92FF920F931F938C01C62E9A0117
:1016E000DD24C7FCD094ED2CFD2CB701A6010E948F
:1016F000CD0AC8010E942A0B1F910F91FF90EF9015
:10170000DF90CF900895629FD001739FF001829F78
:10171000E00DF11D649FE00DF11D929FF00D839F80
:10172000F00D749FF00D659FF00D9927729FB00D1D
:10173000E11DF91F639FB00DE11DF91FBD01CF0130
:101740001124089597FB092E07260AD077FD04D0AF
:1017500049D006D000201AF4709561957F4F089506
:10176000F6F7909581959F4F0895A1E21A2EAA1B36
:10177000BB1BFD010DC0AA1FBB1FEE1FFF1FA21741
:10178000B307E407F50720F0A21BB30BE40BF50B3E
:10179000661F771F881F991F1A9469F760957095C7
:1017A000809590959B01AC01BD01CF01089597FBF9
:1017B000092E05260ED057FD04D0D7DF0AD0001C15
:1017C00038F450954095309521953F4F4F4F5F4FDE
:1017D0000895F6F790958095709561957F4F8F4F9E
:1017E0009F4F0895AA1BBB1B51E107C0AA1FBB1F37
:1017F000A617B70710F0A61BB70B881F991F5A959D
:10180000A9F780959095BC01CD010895EE0FFF1FBB
:101810000590F491E02D09949111089581568A5113
:1018200008F4805285580895F894FFCF23300023A0
:101830000020004F4E004F46005452004B410057CD
:101840005200525300495300414900535300534141
:10185000005342004F6365616E20436F6E74726F78
:101860006C73004B54412D3232332076332E3300CB
:101870000600070000000200030004000500060047
:101880000700080009000F001000110012000101FC
:1018900000000000A009F4090C0AFFFFFFFFFFFF92
:1018A000FFFFFFFFFFFFFFFFFFFFFFFFFFFFFFFF48
:1018B000FFFFFFFFFFFFFFFFFFFFFFFFFFFFFFFF38
:1018C000FFFFFFFFFFFFFFFFFFFFFFFFFFFFFFFF28
:1018D000FFFFFFFFFFFFFFFFFFFFFFFFFFFFFFFF18
:107800000C94343C0C94513C0C94513C0C94513CE1
:107810000C94513C0C94513C0C94513C0C94513CB4
:107820000C94513C0C94513C0C94513C0C94513CA4
:107830000C94513C0C94513C0C94513C0C94513C94
:107840000C94513C0C94513C0C94513C0C94513C84
:107850000C94513C0C94513C0C94513C0C94513C74
:107860000C94513C0C94513C11241FBECFEFD8E036
:10787000DEBFCDBF11E0A0E0B1E0ECE9FFE702C060
:1078800005900D92A230B107D9F712E0A2E0B1E065
:1078900001C01D92AD30B107E1F70E942D3D0C945F
:1078A000CC3F0C94003C982F959595959595959582
:1078B000905D8F708A307CF0282F295A8091C0000B
:1078C00085FFFCCF9093C6008091C00085FFFCCF60
:1078D0002093C6000895282F205DF0CF982F809127
:1078E000C00085FFFCCF9093C6000895EF92FF92F1
:1078F0000F931F93EE24FF2487018091C00087FD22
:1079000017C00894E11CF11C011D111D81E4E8164B
:1079100082E4F8068FE0080780E0180770F3E09132
:107920000401F091050109958091C00087FFE9CF1E
:107930008091C6001F910F91FF90EF9008950E94D3
:10794000763C982F8091C00085FFFCCF9093C600B5
:1079500091362CF490330CF09053892F089597555D
:10796000892F08951F930E949F3C182F0E949F3CCF
:107970001295107F810F1F9108951F93182F882350
:1079800021F00E94763C1150E1F71F9108951F935A
:10799000182F0E94763C803249F0809103018F5F5E
:1079A000809303018530C1F01F9108958091C0003C
:1079B00085FFFCCF84E18093C6008091C00085FFE5
:1079C000FCCF1093C6008091C00085FFFCCF80E102
:1079D0008093C6001F910895E0910401F091050184
:1079E00009951F9108950E94763C803241F0809164
:1079F00003018F5F80930301853081F008958091AA
:107A0000C00085FFFCCF84E18093C6008091C00058
:107A100085FFFCCF80E18093C6000895E0910401CA
:107A2000F09105010995089540E951E08823A1F0FE
:107A30002D9A28EE33E0FA013197F1F721503040CA
:107A4000D1F72D9828EE33E0FA013197F1F7215064
:107A50003040D1F7815061F708953F924F925F9285
:107A60006F927F928F929F92AF92BF92CF92DF924E
:107A7000EF92FF920F931F93CF93DF93000080E16B
:107A80008093C4001092C50088E18093C10086E015
:107A90008093C2005098589A259A81E00E94143D24
:107AA00024E1F22E9EE1E92E85E9D82E0FE0C02ECA
:107AB00010E1B12EAA24A394B1E49B2EA6E58A2E50
:107AC000F2E57F2EE0E26E2E79E4572E63E5462E36
:107AD00050E5352E0E94763C8033B1F18133B9F107
:107AE000803409F46FC0813409F476C0823409F41B
:107AF00085C0853409F488C0803531F1823521F1A3
:107B0000813511F1853509F485C0863509F48DC0BC
:107B1000843609F496C0843709F403C1853709F423
:107B200072C1863709F466C0809103018F5F80932C
:107B30000301853079F6E0910401F0910501099582
:107B40000E94763C803351F60E94F33CC3CF0E94E2
:107B5000763C803249F78091C00085FFFCCFF092DF
:107B6000C6008091C00085FFFCCF9092C600809136
:107B7000C00085FFFCCF8092C6008091C00085FFC9
:107B8000FCCF7092C6008091C00085FFFCCF609250
:107B9000C6008091C00085FFFCCF5092C600809146
:107BA000C00085FFFCCF4092C6008091C00085FFD9
:107BB000FCCF3092C6008091C00085FFFCCFB09210
:107BC000C60088CF0E94763C863808F4BDCF0E945C
:107BD000763C0E94F33C7ECF0E94763C803809F4CC
:107BE0009CC0813809F40BC1823809F43CC1883942
:107BF00009F48FC080E00E94C73C6CCF84E10E94F2
:107C0000BD3C0E94F33C66CF85E00E94BD3C0E94D3
:107C1000F33C60CF0E94763C809306010E94763C44
:107C2000809307010E94F33C55CF0E94763C80333D
:107C300009F41DC183E00E94BD3C80E00E94C73C66
:107C400049CF0E94763C809309020E94763C809343
:107C5000080280910C028E7F80930C020E94763C79
:107C6000853409F415C18091080290910902892B8D
:107C700089F000E010E00E94763CF801E85FFE4FDA
:107C800080830F5F1F4F80910802909109020817AF
:107C9000190788F30E94763C803209F045CF809125
:107CA0000C0280FF01C16091060170910701660F0F
:107CB000771F7093070160930601A0910802B091AD
:107CC00009021097C9F0E8E0F1E09B01AD014E0F09
:107CD0005F1FF999FECF32BD21BD819180BDFA9A17
:107CE000F99A2F5F3F4FE417F50799F76A0F7B1F4B
:107CF00070930701609306018091C00085FFFCCF5F
:107D0000F092C6008091C00085FFFCCFB092C60003
:107D1000E1CE83E00E94C73CDDCE82E00E94C73CFA
:107D2000D9CE0E94763C809309020E94763C8093D3
:107D300008028091060190910701880F991F909386
:107D40000701809306010E94763C853409F4A6C0A1
:107D500080910C028E7F80930C020E94763C8032D0
:107D600009F0B8CE8091C00085FFFCCFF092C6002C
:107D7000609108027091090261157105B9F140E046
:107D800050E080910C02A82FA170B82FB27011C0E2
:107D9000BB2309F45CC0E0910601F0910701319624
:107DA000F0930701E09306014F5F5F4F46175707B7
:107DB000E8F4AA2369F3F999FECF209106013091E6
:107DC000070132BD21BDF89A90B58091C00085FFB2
:107DD000FCCF9093C6002F5F3F4F30930701209355
:107DE00006014F5F5F4F4617570718F38091C00099
:107DF00085FDE5CE8091C00085FFF8CFE0CE81E023
:107E00000E94C73C67CE0E94763C803209F08CCE3F
:107E10008091C00085FFFCCFF092C6008091C00029
:107E200085FFFCCFE092C6008091C00085FFFCCFAB
:107E3000D092C6008091C00085FFFCCFC092C600E2
:107E40008091C00085FFFCCFB092C60043CEE09188
:107E50000601F091070194918091C00085FFFCCF4D
:107E60009093C6009CCF80E10E94C73C33CE0E9415
:107E7000763C0E94763C182F0E94763C112309F430
:107E800083C0113009F484C08FE00E94C73C22CE29
:107E900080910C02816080930C02E5CE80910C02EF
:107EA000816080930C0259CF809107018823880F4D
:107EB000880B8A2180930B02809106019091070123
:107EC000880F991F90930701809306018091080203
:107ED00080FF09C080910802909109020196909359
:107EE000090280930802F894F999FECF1127E091D6
:107EF0000601F0910701C8E0D1E08091080290915D
:107F00000902103091F40091570001700130D9F34B
:107F100003E000935700E89500915700017001308D
:107F2000D9F301E100935700E89509901990009169
:107F3000570001700130D9F301E000935700E89534
:107F40001395103498F011270091570001700130FB
:107F5000D9F305E000935700E895009157000170B0
:107F60000130D9F301E100935700E895329602976A
:107F700009F0C7CF103011F00296E5CF112480919F
:107F8000C00085FFB9CEBCCE8EE10E94C73CA2CD19
:107F900085E90E94C73C9ECDF894FFCF8000FFFF8B
:107FA000FFFFFFFFFFFFFFFFFFFFFFFFFFFFFFFFE1
:107FB000FFFFFFFFFFFFFFFFFFFFFFFFFFFFFFFFD1
:107FC000FFFFFFFFFFFFFFFFFFFFFFFFFFFFFFFFC1
:107FD000FFFFFFFFFFFFFFFFFFFFFFFFFFFFFFFFB1
:107FE000FFFFFFFFFFFFFFFFFFFFFFFFFFFFFFFFA1
:107FF000FFFFFFFFFFFFFFFFFFFFFFFFFFFFFFFF91
:00000001FF
